{
  "contractName": "NotarIO",
  "abi": [
    {
      "constant": false,
      "inputs": [
        {
          "name": "manager",
          "type": "address"
        },
        {
          "name": "company",
          "type": "address"
        },
        {
          "name": "employee",
          "type": "address"
        },
        {
          "name": "StartedDate",
          "type": "uint256"
        },
        {
          "name": "EndedDate",
          "type": "uint256"
        },
        {
          "name": "salary",
          "type": "uint256"
        }
      ],
      "name": "addCDD",
      "outputs": [],
      "payable": false,
      "stateMutability": "nonpayable",
      "type": "function"
    }
  ],
  "bytecode": "0x608060405234801561001057600080fd5b506102d4806100206000396000f3fe608060405234801561001057600080fd5b506004361061002b5760003560e01c80636e7b2f2314610030575b600080fd5b6100d0600480360360c081101561004657600080fd5b81019080803573ffffffffffffffffffffffffffffffffffffffff169060200190929190803573ffffffffffffffffffffffffffffffffffffffff169060200190929190803573ffffffffffffffffffffffffffffffffffffffff1690602001909291908035906020019092919080359060200190929190803590602001909291905050506100d2565b005b6000808673ffffffffffffffffffffffffffffffffffffffff1673ffffffffffffffffffffffffffffffffffffffff1681526020019081526020016000206040518060c001604052808773ffffffffffffffffffffffffffffffffffffffff1681526020018873ffffffffffffffffffffffffffffffffffffffff1681526020018673ffffffffffffffffffffffffffffffffffffffff168152602001428152602001858152602001838152509080600181540180825580915050906001820390600052602060002090600602016000909192909190915060008201518160000160006101000a81548173ffffffffffffffffffffffffffffffffffffffff021916908373ffffffffffffffffffffffffffffffffffffffff16021790555060208201518160010160006101000a81548173ffffffffffffffffffffffffffffffffffffffff021916908373ffffffffffffffffffffffffffffffffffffffff16021790555060408201518160020160006101000a81548173ffffffffffffffffffffffffffffffffffffffff021916908373ffffffffffffffffffffffffffffffffffffffff160217905550606082015181600301556080820151816004015560a0820151816005015550505050505050505056fea165627a7a72305820b832d9426bb8590b7be405e1e512f2f59783f2d6430f3afb575a8c0bccff228b0029",
  "source": "pragma solidity >=0.4.21 <0.6.0;\r\n\r\n/*\r\ncontract Contract {\r\n    /*\r\n    Company public company;\r\n    Employee public employee;\r\n    Manager public manager;\r\n*/\r\n//}\r\n\r\n/* Document */\r\n/*\r\ncontract Document is Contract{\r\n\r\n    string  ipfsHash  ;        // IPFS hash\r\n    string title;           // title\r\n    uint256 uploadedOn;     // Uploaded timestamp\r\n    string path_miniature;  // Path du chemin des miniatures\r\n\r\n/*\r\n    constructor(Employee, Manager, Company, string memory ipfsHash, string memory title, uint256 memory uploadedOn) public {\r\n    }\r\n*/\r\n/*\r\n    function CreateDocument(address employee, address manager, Company company, string ipfsHash, string title, uint256 uploadedOn, string path_miniature) public {\r\n    }\r\n*/\r\n    /*\r\n        Function IPFS => non, utilisation du service IPFS global\r\n        Function Signature => \r\n        Function Consultation => \r\n    */\r\n\r\n\r\n//}\r\n\r\n/* Smart_Contract */\r\ncontract NotarIO  {\r\n\r\n/* Struct par type de contrat \r\nmapping address employee\r\nclef adress user / tableau CDI\r\n\r\n*/\r\n/*\r\n    struct CDI{\r\n        Company address_company; \r\n        Employee address_employee;\r\n        Manager address_manager;\r\n\r\n        uint StartedDate;\r\n        uint EndedDate;\r\n\r\n        uint salary ;\r\n    }\r\n    */\r\n    struct CDD {\r\n        /*\r\n        Company company; \r\n        Employee employee;\r\n        Manager manager;\r\n        */\r\n        address company;\r\n        address manager;\r\n        address employee;\r\n        uint StartedDate;\r\n        uint EndedDate;\r\n        uint salary ;\r\n    }\r\n    struct Company{\r\n        string  siren;\r\n        address  address_company;\r\n    }\r\n    /*\r\n    struct Stage{\r\n        Company address_company; \r\n        Employee address_employee;\r\n        Manager address_manager;\r\n\r\n        uint StartedDate;\r\n        uint EndedDate;\r\n        uint salary ;\r\n    }\r\n    struct Esclavage{\r\n        Company address_company; \r\n        Employee address_employee;\r\n        Manager address_manager; \r\n        uint StartedDate;\r\n\r\n    }\r\n*/\r\n    //mapping(address => CDI[]) cdis;\r\n    mapping(address => CDD[]) cdds;\r\n    mapping(address => Company) companies;\r\n  /*  mapping(address => Stage[]) stages;\r\n    mapping(address => Esclavage[]) esclaves;\r\n*/\r\n    /*\r\n    Afin d'avoir au moins 1/2 trucs fonctionnels\r\n    A faire : CDD, esclavage\r\n    */\r\n\r\n    function addCDD( address manager, address company, address employee, uint StartedDate, uint EndedDate, uint salary ) \r\n    public  {\r\n        cdds[company].push(CDD({\r\n            manager : manager,\r\n            employee : employee,\r\n            company : company,\r\n            StartedDate : now,\r\n            EndedDate : StartedDate ,\r\n            salary : salary\r\n        }));\r\n    }\r\n    /*\r\n        Function Signature\r\n        Function Consultation\r\n    */\r\n}",
  "sourcePath": "D:/_Repository/Github/IMIE/BlockChain_IMIE/NotarIO/contracts/NotarIO.sol",
  "compiler": {
    "name": "solc",
    "version": "0.5.8+commit.23d335f2.Emscripten.clang"
  },
  "schemaVersion": "3.0.13",
  "updatedAt": "2019-08-30T12:49:08.662Z",
  "devdoc": {
    "methods": {}
  },
  "userdoc": {
    "methods": {}
  }
}